S00F000064656661756C742E7372656330
S113000057C0000072C0000070C000006EC0000045
S11300106CC000006AC0000068C0000066C0000038
S113002064C0000062C0000060C000005EC0000048
S11300305CC00000FDC0000058C0000056C00000B5
S113004054C0000052C0000050C000004EC0000068
S11300504CC000004AC0000048C0000046C0000078
S113006044C0000042C0000040C000003EC0000088
S11300703CC000003AC0000038C0000036C0000098
S113008034C0000032C0000030C0000085008E0083
S1130090920096009A009E00A200A600AA00B90051
S11300A0BD00C000C500CA00CF00D400D900DE00E6
S11300B011241FBECFEFD0E4DEBFCDBF11E0A0E01E
S11300C0B1E0E2E6F3E000E00BBF02C007900D925E
S11300D0A630B107D9F721E0A6E0B1E001C01D9236
S11300E0A631B207E1F7E6D03AC18ACF2091780071
S11300F030917900309301012093000189309105FA
S113010088F5FC01EA5BFF4F21C151E040E02F3F3D
S1130110310508F050E0852F942F24C02F3F31057E
S113012078F127C02F3F310580F123C02F3F3105DF
S113013088F11FC02F3F310590F11BC02F3F3105BF
S113014098F117C02F3F3105A0F113C02F3F31059F
S1130150A8F10FC051E040E02F3F310508F050E016
S1130160852F942F8930910568F5FC01E15BFF4FE1
S1130170EDC015B880E090E0089521E025B9089518
S113018083E085B982E090E0089582E085B983E058
S113019090E0089586E085B984E090E0089584E0D5
S11301A085B985E090E008958CE085B986E090E01B
S11301B0089580E885B987E090E0089580E985B9DD
S11301C088E090E0089560930201709303018093A6
S11301D004019093050160931101709312018093BF
S11301E013019093140108958BE0809381008DE7AF
S11301F090E0909389008093880082E080936F0060
S11302001092850010928400809102019091030164
S1130210A0910401B0910501809311019093120102
S1130220A0931301B09314018FB780688FBF089512
S11302301F920F920FB60F9211248F939F93AF9337
S1130240BF938091110190911201A0911301B0917B
S113025014010197A109B10980931101909312012E
S1130260A0931301B0931401892B8A2B8B2B99F43F
S113027081E0809315018091020190910301A09186
S11302800401B09105018093110190931201A09390
S11302901301B0931401BF91AF919F918F910F906F
S11302A00FBE0F901F901895EAE7F0E08081806EF2
S11302B08083089511B88FEF82B984B915B8E6E048
S11302C0F1E0108282E090E0A0E0B0E081839283CC
S11302D0A383B48385839683A783B08786E790E05E
S11302E09287818761E070E080E090E06CDF7CDFE2
S11302F0DBDFC6E0D1E04D815E816F817885898145
S11303009A81AB81BC81481759076A077B0761F45E
S11303108881E985FA85082E000C990B0995888354
S11303201D821E821F8218868D819E81AF81B885B1
S11303300196A11DB11D8D839E83AF83B8878091E3
S113034015018823E1F310921501D5CFEE0FFF1F9D
S11303500024001C0BBE0790F691E02D0994F8943C
S1050360FFCFC9
S1090362CDAB0100000018
S9030000FC
