S01200004C43445F5363726F6C6C2E7372656371
S113000045C0000060C000005EC000005CC000008D
S11300105AC0000058C0000056C0000054C0000080
S113002052C0000050C000004EC000004CC0000090
S11300304AC00000F4C0000046C0000044C00000F4
S113004042C0000040C000003EC000003CC00000B0
S11300503AC0000038C0000036C0000034C00000C0
S113006032C0000030C000002EC000002CC00000D0
S11300702AC0000028C0000026C0000024C00000E0
S113008022C0000020C000001EC0000011241FBEBA
S1130090CFEFD0E4DEBFCDBF11E0A0E0B1E0E6E0F9
S11300A0F5E000E00BBF02C007900D92AA34B1073F
S11300B0D9F721E0AAE4B1E001C01D92A936B20744
S11300C0E1F74AD11EC29CCFEF92FF920F931F9388
S11300D0CF93DF938130910531F08230910551F057
S11300E0009779F416C090916101809110019817DE
S11300F0C8F00FC09091610180911001981790F0A1
S113010008C08130910529F08230910509F04BC077
S113011009C010926801109262011092610181E09D
S113012090E041C0C0916101EC2EF12C40E150E01F
S11301304E195F0920E030E0E0E0D0E2B7016F5FE4
S11301407E4FC13158F0F0E0E150FF4FCB01830FF7
S1130150911DDC018C9180833F5F18C08E2F90E04D
S1130160841795077CF0E32FF0E087010E1B1F0B2B
S11301704AF081509F4FEF5EFE4FE081DC01EC932B
S11301803F5F04C0FC01E150FF4FD0832F5FE22F9B
S11301902131B8F23093680120936201CF5FC0939C
S11301A0610182E090E0DF91CF911F910F91FF9068
S11301B0EF9008956093460170934701809348013E
S11301C09093490160936301709364018093650186
S11301D09093660108958BE0809381008DE790E011
S11301E0909389008093880082E080936F0010923E
S11301F08500109284008091460190914701A0915E
S11302004801B09149018093630190936401A093E4
S11302106501B09366018FB780688FBF08951F9200
S11302200F920FB60F9211248F939F93AF93BF93A6
S11302308091630190916401A0916501B091660180
S11302400197A109B1098093630190936401A0937C
S11302506501B0936601892B8A2B8B2B99F481E07D
S1130260809367018091460190914701A0914801D4
S1130270B09149018093630190936401A093650157
S1130280B0936601BF91AF919F918F910F900FBE74
S11302900F901F901895181619065CF00895000029
S11302A021503109E1F74F5F5F4F8417950719F427
S11302B0089540E050E027E033E0F1CF5E9888B93C
S11302C05F9A00005F9882E090E0E5CF0895813165
S11302D018F48158F3CF08958155F0CF089584E63A
S11302E090E0D9DF88E3EADF86E0E8DF8FE0E6DF4D
S11302F081E0E4DF8AE090E0CECF08955E9A88B989
S11303005F9A00005F9881E090E0C5CF0895813046
S1130310910551F082309105E1F0009711F4DFDF8F
S113032018C082309105B9F41092600180E0CFDFEB
S1130330E0916001F0E0E150FF4F8081DFDF8091C8
S113034060018F5F80936001813188F382E090E0E7
S1130350089581E090E00895CF93DF9300D000D01A
S1130360CDB7DEB78FEF87B918B88AB91BB80F2E8F
S1130370FDE1EF2EF02DFF24F39400E010E053E1B3
S113038041E030E020E004C0E62EF72E082F192FBC
S1130390652F742F832F922F2E2D3F2D402F512FF9
S11303A08ED05E2D4F2D302F212F611571058105C3
S11303B0910551F763E171E080E090E02E2D3F2D2F
S11303C0402F512F7CD049015A016DE171E080E04A
S11303D090E02E2D3F2D402F512F71D0A5E5B1E097
S11303E0BA83A983EAE4F1E0FC83EB831C921196BF
S11303F08D929D92AD92BC92149715968D929D927A
S1130400AD92BC92189784E690E01A969C938E93D2
S1130410199710822183328343835483258336833F
S11304204783508787E891E0928781876E2D7F2DDF
S1130430802F912FBFDECFDE7E0185E0E80EF11C18
S1130440DE0111966D01F601019111916F01D80140
S113045015964D915D916D917C91189711968D91A2
S11304609D910D90BC91A02D481759076A077B07F1
S113047081F4F80180810184F285E02D082E000CBE
S1130480990B0995D8018C93F8011582168217826D
S11304901086F80185819681A781B0850196A11DFA
S11304A0B11D85839683A783B087CE14DF0459F6E4
S11304B0809167018823E1F310926701C1CFA1E223
S11304C01A2EAA1BBB1BFD010DC0AA1FBB1FEE1FCA
S11304D0FF1FA217B307E407F50720F0A21BB30B15
S11304E0E40BF50B661F771F881F991F1A9469F791
S11304F060957095809590959B01AC01BD01CF01ED
S10905000895F894FFCFFA
S11305063132333435363738392D2A2625303030D2
S11305163457656C636F6D6520746F20506C616E23
S11305267420506172656E74686F6F64202E2E2E6F
S113053620507265737320526967687420746F2043
S10D05465374617274000100000098
S9030000FC
