S0110000557365725F6D656E752E7372656360
S113000045C0000060C000005EC000005CC000008D
S11300105AC0000058C0000056C0000054C0000080
S113002052C0000050C000004EC000004CC0000090
S11300304AC0000024C1000046C0000044C00000C3
S113004042C0000040C000003EC000003CC00000B0
S11300503AC0000038C0000036C0000034C00000C0
S113006032C0000030C000002EC000002CC00000D0
S11300702AC0000028C0000026C0000024C00000E0
S113008022C0000020C000001EC0000011241FBEBA
S1130090CFEFD0E4DEBFCDBF11E0A0E0B1E0ECEDE6
S11300A0F5E000E00BBF02C007900D92A035B10748
S11300B0D9F721E0A0E5B1E001C01D92AB37B2074A
S11300C0E1F77AD189C29CCF009721F08130910564
S11300D029F00AC080B180B180B123C080B180B161
S11300E080B1109274011DC081309105E1F48091BA
S11300F07401833029F483E285B981E090E00895A6
S1130100813029F489E085B981E090E00895823056
S113011029F482E185B981E090E0089581E090E0DE
S1130120089580E090E00895EF92FF920F931F935B
S1130130CF93DF938130910531F08230910551F0F6
S1130140009779F416C0909172018091100198176C
S1130150C8F00FC09091720180911001981790F02F
S113016008C08130910529F08230910509F04BC017
S113017009C010927A01109273011092720181E009
S113018090E041C0C0917201EC2EF12C40E150E0AE
S11301904E195F0920E030E0E0E0D0E2B7016F5F84
S11301A07E4FC13158F0F0E0E150FF4FCB01830F97
S11301B0911DDC018C9180833F5F18C08E2F90E0ED
S11301C0841795077CF0E32FF0E087010E1B1F0BCB
S11301D04AF081509F4FEF5EFE4FE081DC01EC93CB
S11301E03F5F04C0FC01E150FF4FD0832F5FE22F3B
S11301F02131B8F230937A0120937301CF5FC09319
S1130200720182E090E0DF91CF911F910F91FF90F6
S1130210EF900895609346017093470180934801DD
S113022090934901609375017093760180937701EF
S11302309093780108958BE0809381008DE790E09E
S1130240909389008093880082E080936F001092DD
S11302508500109284008091460190914701A091FD
S11302604801B09149018093750190937601A09360
S11302707701B09378018FB780688FBF08951F927C
S11302800F920FB60F9211248F939F93AF93BF9346
S11302908091750190917601A0917701B0917801D8
S11302A00197A109B1098093750190937601A093F8
S11302B07701B0937801892B8A2B8B2B99F481E0F9
S11302C0809379018091460190914701A091480162
S11302D0B09149018093750190937601A0937701C1
S11302E0B0937801BF91AF919F918F910F900FBE02
S11302F00F901F901895181619065CF008950000C9
S113030021503109E1F74F5F5F4F8417950719F4C6
S1130310089540E050E027E033E0F1CF5E9888B9DB
S11303205F9A00005F9882E090E0E5CF0895813104
S113033018F48158F3CF08958155F0CF089584E6D9
S113034090E0D9DF88E3EADF86E0E8DF8FE0E6DFEC
S113035081E0E4DF8AE090E0CECF08955E9A88B928
S11303605F9A00005F9881E090E0C5CF08958130E6
S1130370910551F082309105E1F0009711F4DFDF2F
S113038018C082309105B9F41092710180E0CFDF7A
S1130390E0917101F0E0E150FF4F8081DFDF809157
S11303A071018F5F80937101813188F382E090E065
S11303B0089581E090E00895CF93DF9300D000D0BA
S11303C000D0CDB7DEB78FEF87B918B884B915B8A8
S11303D08AB91BB80F2EF3E1DF2EF02DCC24C39481
S11303E0B12CA12C54E140E030E020E004C0D62E32
S11303F0C72EB82EA92E652F742F832F922F2D2D43
S11304003C2D4B2D5A2DC6D05D2D4C2D3B2D2A2D28
S1130410611571058105910551F70F2EFDE1EF2E50
S1130420F02DFF24F39400E010E004C0E62EF72E34
S1130430082F192F6D2D7C2D8B2D9A2D2E2D3F2DB0
S1130440402F512FA7D0DE2CCF2CB02EA12E61151A
S113045071058105910551F764E170E080E090E059
S11304602E2D3F2D402F512F95D029013A0163E1C4
S113047071E080E090E02E2D3F2D402F512F8AD047
S113048049015A016DE171E080E090E02E2D3F2D8D
S1130490402F512F7FD086E0EAE4F1E0DE0111968F
S11304A001900D928A95E1F7E6E6F1E0108241822F
S11304B0528263827482458256826782708684E6A1
S11304C090E092878187EBE5F1E01082818292824D
S11304D0A382B48285829682A782B08684E990E062
S11304E092878187E0E5F1E01082218332834383A0
S11304F05483258336834783508787EB91E0928723
S113050081876E2D7F2D802F912F84DE94DE7E01D6
S113051087E0E80EF11CDE0111966D01F6010191F0
S113052011916F01D80115964D915D916D917C915A
S1130530189711968D919D910D90BC91A02D4817FF
S113054059076A077B0781F4F80180810184F285E9
S1130550E02D082E000C990B0995D8018C93F80115
S11305601582168217821086F80185819681A781EB
S1130570B0850196A11DB11D85839683A783B0879D
S1130580CE14DF0459F6809179018823E1F31092A7
S11305907901C1CFA1E21A2EAA1BBB1BFD010DC01C
S11305A0AA1FBB1FEE1FFF1FA217B307E407F5071F
S11305B020F0A21BB30BE40BF50B661F771F881FFB
S11305C0991F1A9469F760957095809590959B0191
S10F05D0AC01BD01CF010895F894FFCFE9
S11305DC3132333435363738392D2A2625303030FC
S11305EC3457656C636F6D6520746F20506C616E4D
S11305FC7420506172656E74686F6F64202E2E2E99
S113060C20507265737320526967687420746F206C
S113061C5374617274000100000066015B015001A7
S9030000FC
