:1000000057C0000072C0000070C000006EC0000049
:100010006CC000006AC0000068C0000066C000003C
:1000200064C0000062C0000060C000005EC000004C
:100030005CC00000F5C0000058C0000056C00000C1
:1000400054C0000052C0000050C000004EC000006C
:100050004CC000004AC0000048C0000046C000007C
:1000600044C0000042C0000040C000003EC000008C
:100070003CC000003AC0000038C0000036C000009C
:1000800034C0000032C0000030C000007D00860097
:100090008A008E00920096009A009E00A200B10095
:1000A000B500B800BD00C200C700CC00D100D6002A
:1000B00011241FBECFEFD0E4DEBFCDBF11E0A0E022
:1000C000B1E0E4E4F3E000E00BBF02C007900D9262
:1000D000A430B107D9F721E0A4E0B1E001C01D923E
:1000E000A431B207E1F7D8D02BC18ACF893091056E
:1000F00088F5FC01EA5BFF4F1AC186B131E020E0D0
:100100008F3F09F030E0832F922F24C086B18F3FBC
:1001100041F52EC086B18F3F21F52FC086B18F3FAC
:1001200001F530C086B18F3FE1F431C086B18F3F19
:10013000C1F432C086B18F3FA1F433C086B18F3F86
:1001400081F434C086B131E020E08F3F09F030E027
:10015000832F922F8930910568F5FC01E15BFF4FF9
:10016000E6C012B880E090E0089521E022B9089539
:1001700083E082B982E090E0089582E082B983E072
:1001800090E0089586E082B984E090E0089584E0EC
:1001900082B985E090E008958CE082B986E090E035
:1001A000089580E882B987E090E0089580E982B9F7
:1001B00088E090E0089560930001709301018093BE
:1001C00002019093030160930F01709310018093DB
:1001D00011019093120108958BE0809381008DE7C7
:1001E00090E0909389008093880082E080936F0074
:1001F000109285001092840080910001909101017D
:10020000A0910201B091030180930F01909310011E
:10021000A0931101B09312018FB780688FBF08952A
:100220001F920F920FB60F9211248F939F93AF934B
:10023000BF9380910F0190911001A0911101B09195
:1002400012010197A109B10980930F019093100148
:10025000A0931101B0931201892B8A2B8B2B99F457
:1002600081E0809313018091000190910101A091A0
:100270000201B091030180930F0190931001A093AC
:100280001101B0931201BF91AF919F918F910F9087
:100290000FBE0F901F9018958FEF81B912B817B845
:1002A00088B9E4E0F1E0108283E090E0A0E0B0E003
:1002B00081839283A383B48385839683A783B08746
:1002C00086E790E09287818761E070E080E090E0CF
:1002D00072DF82DFC4E0D1E04D815E816F8178857D
:1002E00089819A81AB81BC81481759076A077B07CE
:1002F00061F48881E985FA85082E000C990B09952F
:1003000088831D821E821F8218868D819E81AF8107
:10031000B8850196A11DB11D8D839E83AF83B887DB
:10032000809113018823E1F310921301D5CFEE0FD2
:10033000FF1F0024001C0BBE0790F691E02D0994CE
:04034000F894FFCF5F
:0403440001000000B4
:00000001FF
