S012000050756D705F6D6F746F722E73726563E0
S113000056C0000071C000006FC000006DC0000049
S11300106BC0000069C0000067C0000065C000003C
S113002063C0000061C000005FC000005DC000004C
S11300305BC00000C6C0000057C0000055C00000EF
S113004053C0000051C000004FC000004DC000006C
S11300504BC0000049C0000047C0000045C000007C
S113006043C0000041C000003FC000003DC000008C
S11300703BC0000039C0000037C0000035C000009C
S113008033C0000031C000002FC00000840089008C
S11300908E00930098009D00A200A70084008400B5
S11300A089008E00930098009D00A200A7001124EF
S11300B01FBECFEFD0E4DEBFCDBF11E0A0E0B1E0C2
S11300C0E2EEF2E000E00BBF02C007900D92A43014
S11300D0B107D9F721E0A4E0B1E001C01D92A43139
S11300E0B207E1F7AAD0FBC08BCF8930910520F489
S11300F0FC01EA5BFF4FEAC0FC013197E830F105EF
S113010050F5E15BFF4FE2C081E082B981E090E00D
S1130110089583E082B982E090E0089582E082B994
S113012083E090E0089586E082B984E090E0089549
S113013084E082B985E090E008958CE082B986E09D
S113014090E0089580E882B987E090E0089580E91E
S113015082B988E090E008956093000170930101F2
S1130160809302019093030160930F017093100137
S1130170809311019093120108958BE08093810084
S11301808DE790E0909389008093880082E08093CB
S11301906F0010928500109284008091000190916C
S11301A00101A0910201B091030180930F0190938A
S11301B01001A0931101B09312018FB780688FBF13
S11301C008951F920F920FB60F9211248F939F934D
S11301D0AF93BF9380910F0190911001A0911101F1
S11301E0B09112010197A109B10980930F01909375
S11301F01001A0931101B0931201892B8A2B8B2B30
S113020099F481E0809313018091000190910101A0
S1130210A0910201B091030180930F01909310010A
S1130220A0931101B0931201BF91AF919F918F914F
S11302300F900FBE0F901F9018958FEF81B912B8D1
S1130240E4E0F1E0108283E090E0A0E0B0E081839C
S11302509283A383B48385839683A783B08785E73A
S113026090E09287818761E070E080E090E074DF45
S113027084DFC4E0D1E04D815E816F81788589811E
S11302809A81AB81BC81481759076A077B0761F4DF
S11302908881E985FA85082E000C990B09958883D5
S11302A01D821E821F8218868D819E81AF81B88532
S11302B00196A11DB11D8D839E83AF83B887809164
S11302C013018823E1F310921301D5CFEE0FFF1F22
S11302D00024001C0BBE0790F691E02D0994F894BD
S10502E0FFCF4A
S10702E20100000013
S9030000FC
